{
  "contractName": "DonationDapp",
  "abi": [
    {
      "inputs": [
        {
          "internalType": "uint256",
          "name": "_donation",
          "type": "uint256"
        },
        {
          "internalType": "uint256",
          "name": "_maxDonators",
          "type": "uint256"
        },
        {
          "internalType": "uint256",
          "name": "_contentTime",
          "type": "uint256"
        }
      ],
      "stateMutability": "nonpayable",
      "type": "constructor"
    },
    {
      "inputs": [],
      "name": "ContentCID",
      "outputs": [
        {
          "internalType": "string",
          "name": "",
          "type": "string"
        }
      ],
      "stateMutability": "view",
      "type": "function"
    },
    {
      "inputs": [],
      "name": "ContentTime",
      "outputs": [
        {
          "internalType": "uint256",
          "name": "",
          "type": "uint256"
        }
      ],
      "stateMutability": "view",
      "type": "function"
    },
    {
      "inputs": [],
      "name": "DappCID",
      "outputs": [
        {
          "internalType": "string",
          "name": "",
          "type": "string"
        }
      ],
      "stateMutability": "view",
      "type": "function"
    },
    {
      "inputs": [],
      "name": "Distributor",
      "outputs": [
        {
          "internalType": "address",
          "name": "",
          "type": "address"
        }
      ],
      "stateMutability": "view",
      "type": "function"
    },
    {
      "inputs": [],
      "name": "Donation",
      "outputs": [
        {
          "internalType": "uint256",
          "name": "",
          "type": "uint256"
        }
      ],
      "stateMutability": "view",
      "type": "function"
    },
    {
      "inputs": [],
      "name": "DonatorID",
      "outputs": [
        {
          "internalType": "uint256",
          "name": "",
          "type": "uint256"
        }
      ],
      "stateMutability": "view",
      "type": "function"
    },
    {
      "inputs": [
        {
          "internalType": "uint256",
          "name": "",
          "type": "uint256"
        }
      ],
      "name": "DonatorsArr",
      "outputs": [
        {
          "internalType": "address",
          "name": "",
          "type": "address"
        }
      ],
      "stateMutability": "view",
      "type": "function"
    },
    {
      "inputs": [
        {
          "internalType": "address",
          "name": "",
          "type": "address"
        }
      ],
      "name": "DonatorsMap",
      "outputs": [
        {
          "internalType": "bool",
          "name": "",
          "type": "bool"
        }
      ],
      "stateMutability": "view",
      "type": "function"
    },
    {
      "inputs": [],
      "name": "MaxDonators",
      "outputs": [
        {
          "internalType": "uint256",
          "name": "",
          "type": "uint256"
        }
      ],
      "stateMutability": "view",
      "type": "function"
    },
    {
      "inputs": [
        {
          "internalType": "uint256",
          "name": "_donatorId",
          "type": "uint256"
        }
      ],
      "name": "tokenURI",
      "outputs": [
        {
          "internalType": "string",
          "name": "",
          "type": "string"
        }
      ],
      "stateMutability": "view",
      "type": "function"
    },
    {
      "inputs": [
        {
          "internalType": "string",
          "name": "_dappCID",
          "type": "string"
        }
      ],
      "name": "distributeDapp",
      "outputs": [],
      "stateMutability": "nonpayable",
      "type": "function"
    },
    {
      "inputs": [
        {
          "internalType": "string",
          "name": "_contentCID",
          "type": "string"
        }
      ],
      "name": "setContentCID",
      "outputs": [],
      "stateMutability": "nonpayable",
      "type": "function"
    },
    {
      "inputs": [],
      "name": "claim",
      "outputs": [],
      "stateMutability": "nonpayable",
      "type": "function"
    },
    {
      "inputs": [],
      "name": "donate",
      "outputs": [],
      "stateMutability": "payable",
      "type": "function"
    }
  ],
  "bytecode": "0x60e06040523480156200001157600080fd5b5060405162001930380380620019308339818101604052810190620000379190620000a5565b3373ffffffffffffffffffffffffffffffffffffffff1660808173ffffffffffffffffffffffffffffffffffffffff1660601b815250508260a081815250508160c08181525050806002819055505050506200012a565b6000815190506200009f8162000110565b92915050565b600080600060608486031215620000c157620000c06200010b565b5b6000620000d1868287016200008e565b9350506020620000e4868287016200008e565b9250506040620000f7868287016200008e565b9150509250925092565b6000819050919050565b600080fd5b6200011b8162000101565b81146200012757600080fd5b50565b60805160601c60a05160c0516117a962000187600039600081816105ad0152610aa301526000818161035f0152610b0701526000818161033b01528181610450015281816104e0015281816105dd015261076701526117a96000f3fe6080604052600436106100dd5760003560e01c806386dd52091161007f578063a8d5271711610059578063a8d527171461028a578063b5fdc846146102b5578063c87b56dd146102f2578063ed88c68e1461032f576100dd565b806386dd52091461020d5780639b294d0f14610238578063a05a955214610261576100dd565b80633482f018116100bb5780633482f018146101755780634e71d92d146101a05780635b8ef2fc146101b757806361458aa3146101e2576100dd565b80632039d890146100e25780632a12a6231461010d5780632c8cb3a914610138575b600080fd5b3480156100ee57600080fd5b506100f7610339565b6040516101049190611185565b60405180910390f35b34801561011957600080fd5b5061012261035d565b60405161012f91906112dd565b60405180910390f35b34801561014457600080fd5b5061015f600480360381019061015a9190610e86565b610381565b60405161016c9190611185565b60405180910390f35b34801561018157600080fd5b5061018a6103c0565b60405161019791906111bb565b60405180910390f35b3480156101ac57600080fd5b506101b561044e565b005b3480156101c357600080fd5b506101cc6105ab565b6040516101d991906112dd565b60405180910390f35b3480156101ee57600080fd5b506101f76105cf565b60405161020491906112dd565b60405180910390f35b34801561021957600080fd5b506102226105d5565b60405161022f91906112dd565b60405180910390f35b34801561024457600080fd5b5061025f600480360381019061025a9190610e3d565b6105db565b005b34801561026d57600080fd5b5061028860048036038101906102839190610e3d565b610765565b005b34801561029657600080fd5b5061029f6108ef565b6040516102ac91906111bb565b60405180910390f35b3480156102c157600080fd5b506102dc60048036038101906102d79190610e10565b61097d565b6040516102e991906111a0565b60405180910390f35b3480156102fe57600080fd5b5061031960048036038101906103149190610e86565b61099d565b60405161032691906111bb565b60405180910390f35b610337610a14565b005b7f000000000000000000000000000000000000000000000000000000000000000081565b7f000000000000000000000000000000000000000000000000000000000000000081565b6005818154811061039157600080fd5b906000526020600020016000915054906101000a900473ffffffffffffffffffffffffffffffffffffffff1681565b600180546103cd9061142a565b80601f01602080910402602001604051908101604052809291908181526020018280546103f99061142a565b80156104465780601f1061041b57610100808354040283529160200191610446565b820191906000526020600020905b81548152906001019060200180831161042957829003601f168201915b505050505081565b7f000000000000000000000000000000000000000000000000000000000000000073ffffffffffffffffffffffffffffffffffffffff163373ffffffffffffffffffffffffffffffffffffffff16146104dc576040517f08c379a00000000000000000000000000000000000000000000000000000000081526004016104d39061123d565b60405180910390fd5b60007f000000000000000000000000000000000000000000000000000000000000000073ffffffffffffffffffffffffffffffffffffffff164760405161052290611170565b60006040518083038185875af1925050503d806000811461055f576040519150601f19603f3d011682016040523d82523d6000602084013e610564565b606091505b50509050806105a8576040517f08c379a000000000000000000000000000000000000000000000000000000000815260040161059f906111dd565b60405180910390fd5b50565b7f000000000000000000000000000000000000000000000000000000000000000081565b60025481565b60035481565b7f000000000000000000000000000000000000000000000000000000000000000073ffffffffffffffffffffffffffffffffffffffff163373ffffffffffffffffffffffffffffffffffffffff1614610669576040517f08c379a00000000000000000000000000000000000000000000000000000000081526004016106609061123d565b60405180910390fd5b61070c600180546106799061142a565b80601f01602080910402602001604051908101604052809291908181526020018280546106a59061142a565b80156106f25780601f106106c7576101008083540402835291602001916106f2565b820191906000526020600020905b8154815290600101906020018083116106d557829003601f168201915b505050505060405180602001604052806000815250610c3d565b61074b576040517f08c379a0000000000000000000000000000000000000000000000000000000008152600401610742906112bd565b60405180910390fd5b8060019080519060200190610761929190610cd3565b5050565b7f000000000000000000000000000000000000000000000000000000000000000073ffffffffffffffffffffffffffffffffffffffff163373ffffffffffffffffffffffffffffffffffffffff16146107f3576040517f08c379a00000000000000000000000000000000000000000000000000000000081526004016107ea9061123d565b60405180910390fd5b610896600080546108039061142a565b80601f016020809104026020016040519081016040528092919081815260200182805461082f9061142a565b801561087c5780601f106108515761010080835404028352916020019161087c565b820191906000526020600020905b81548152906001019060200180831161085f57829003601f168201915b505050505060405180602001604052806000815250610c3d565b6108d5576040517f08c379a00000000000000000000000000000000000000000000000000000000081526004016108cc9061125d565b60405180910390fd5b80600090805190602001906108eb929190610cd3565b5050565b600080546108fc9061142a565b80601f01602080910402602001604051908101604052809291908181526020018280546109289061142a565b80156109755780601f1061094a57610100808354040283529160200191610975565b820191906000526020600020905b81548152906001019060200180831161095857829003601f168201915b505050505081565b60046020528060005260406000206000915054906101000a900460ff1681565b606081600354106109e3576040517f08c379a00000000000000000000000000000000000000000000000000000000081526004016109da9061129d565b60405180910390fd5b6109eb610c96565b60006040516020016109fe92919061114c565b6040516020818303038152906040529050919050565b600460003373ffffffffffffffffffffffffffffffffffffffff1673ffffffffffffffffffffffffffffffffffffffff16815260200190815260200160002060009054906101000a900460ff1615610aa1576040517f08c379a0000000000000000000000000000000000000000000000000000000008152600401610a989061121d565b60405180910390fd5b7f000000000000000000000000000000000000000000000000000000000000000060035410610b05576040517f08c379a0000000000000000000000000000000000000000000000000000000008152600401610afc9061127d565b60405180910390fd5b7f0000000000000000000000000000000000000000000000000000000000000000341015610b68576040517f08c379a0000000000000000000000000000000000000000000000000000000008152600401610b5f906111fd565b60405180910390fd5b60036000815480929190610b7b9061148d565b91905055506001600460003373ffffffffffffffffffffffffffffffffffffffff1673ffffffffffffffffffffffffffffffffffffffff16815260200190815260200160002060006101000a81548160ff0219169083151502179055506005339080600181540180825580915050600190039060005260206000200160009091909190916101000a81548173ffffffffffffffffffffffffffffffffffffffff021916908373ffffffffffffffffffffffffffffffffffffffff160217905550565b600081604051602001610c509190611135565b6040516020818303038152906040528051906020012083604051602001610c779190611135565b6040516020818303038152906040528051906020012014905092915050565b60606040518060400160405280600781526020017f697066733a2f2f00000000000000000000000000000000000000000000000000815250905090565b828054610cdf9061142a565b90600052602060002090601f016020900481019282610d015760008555610d48565b82601f10610d1a57805160ff1916838001178555610d48565b82800160010185558215610d48579182015b82811115610d47578251825591602001919060010190610d2c565b5b509050610d559190610d59565b5090565b5b80821115610d72576000816000905550600101610d5a565b5090565b6000610d89610d848461131d565b6112f8565b905082815260208101848484011115610da557610da4611568565b5b610db08482856113e8565b509392505050565b600081359050610dc781611745565b92915050565b600082601f830112610de257610de1611563565b5b8135610df2848260208601610d76565b91505092915050565b600081359050610e0a8161175c565b92915050565b600060208284031215610e2657610e25611572565b5b6000610e3484828501610db8565b91505092915050565b600060208284031215610e5357610e52611572565b5b600082013567ffffffffffffffff811115610e7157610e7061156d565b5b610e7d84828501610dcd565b91505092915050565b600060208284031215610e9c57610e9b611572565b5b6000610eaa84828501610dfb565b91505092915050565b610ebc816113a0565b82525050565b610ecb816113b2565b82525050565b6000610edc82611363565b610ee68185611379565b9350610ef68185602086016113f7565b80840191505092915050565b6000610f0d8261136e565b610f178185611384565b9350610f278185602086016113f7565b610f3081611577565b840191505092915050565b6000610f468261136e565b610f508185611395565b9350610f608185602086016113f7565b80840191505092915050565b60008154610f798161142a565b610f838186611395565b94506001821660008114610f9e5760018114610faf57610fe2565b60ff19831686528186019350610fe2565b610fb88561134e565b60005b83811015610fda57815481890152600182019150602081019050610fbb565b838801955050505b50505092915050565b6000610ff8601483611384565b915061100382611588565b602082019050919050565b600061101b603b83611384565b9150611026826115b1565b604082019050919050565b600061103e603683611384565b915061104982611600565b604082019050919050565b6000611061601c83611384565b915061106c8261164f565b602082019050919050565b6000611084601e83611384565b915061108f82611678565b602082019050919050565b60006110a7600083611379565b91506110b2826116a1565b600082019050919050565b60006110ca602583611384565b91506110d5826116a4565b604082019050919050565b60006110ed601183611384565b91506110f8826116f3565b602082019050919050565b6000611110602083611384565b915061111b8261171c565b602082019050919050565b61112f816113de565b82525050565b60006111418284610ed1565b915081905092915050565b60006111588285610f3b565b91506111648284610f6c565b91508190509392505050565b600061117b8261109a565b9150819050919050565b600060208201905061119a6000830184610eb3565b92915050565b60006020820190506111b56000830184610ec2565b92915050565b600060208201905081810360008301526111d58184610f02565b905092915050565b600060208201905081810360008301526111f681610feb565b9050919050565b600060208201905081810360008301526112168161100e565b9050919050565b6000602082019050818103600083015261123681611031565b9050919050565b6000602082019050818103600083015261125681611054565b9050919050565b6000602082019050818103600083015261127681611077565b9050919050565b60006020820190508181036000830152611296816110bd565b9050919050565b600060208201905081810360008301526112b6816110e0565b9050919050565b600060208201905081810360008301526112d681611103565b9050919050565b60006020820190506112f26000830184611126565b92915050565b6000611302611313565b905061130e828261145c565b919050565b6000604051905090565b600067ffffffffffffffff82111561133857611337611534565b5b61134182611577565b9050602081019050919050565b60008190508160005260206000209050919050565b600081519050919050565b600081519050919050565b600081905092915050565b600082825260208201905092915050565b600081905092915050565b60006113ab826113be565b9050919050565b60008115159050919050565b600073ffffffffffffffffffffffffffffffffffffffff82169050919050565b6000819050919050565b82818337600083830152505050565b60005b838110156114155780820151818401526020810190506113fa565b83811115611424576000848401525b50505050565b6000600282049050600182168061144257607f821691505b6020821081141561145657611455611505565b5b50919050565b61146582611577565b810181811067ffffffffffffffff8211171561148457611483611534565b5b80604052505050565b6000611498826113de565b91507fffffffffffffffffffffffffffffffffffffffffffffffffffffffffffffffff8214156114cb576114ca6114d6565b5b600182019050919050565b7f4e487b7100000000000000000000000000000000000000000000000000000000600052601160045260246000fd5b7f4e487b7100000000000000000000000000000000000000000000000000000000600052602260045260246000fd5b7f4e487b7100000000000000000000000000000000000000000000000000000000600052604160045260246000fd5b600080fd5b600080fd5b600080fd5b600080fd5b6000601f19601f8301169050919050565b7f4661696c656420746f2073656e64204574686572000000000000000000000000600082015250565b7f596f75206d75737420646f6e6174652074686520636f6e747261637420646f6e60008201527f6174696f6e2076616c756520746f2070617274696369706174652e0000000000602082015250565b7f596f75206861766520616c726561647920646f6e6174656420746f207468697360008201527f207075626c696320676f6f64732070726f6a6563742e00000000000000000000602082015250565b7f496e76616c6964204469737472696275746f7220416464726573732e00000000600082015250565b7f44617070204349442068617320616c7265616479206265656e207365742e0000600082015250565b50565b7f54686520646f6e6174696f6e206d6178696d756d20686173206265656e20726560008201527f6163686564000000000000000000000000000000000000000000000000000000602082015250565b7f496e76616c696420446f6e61746f724944000000000000000000000000000000600082015250565b7f436f6e74656e744349442068617320616c7265616479206265656e207365742e600082015250565b61174e816113a0565b811461175957600080fd5b50565b611765816113de565b811461177057600080fd5b5056fea26469706673582212201460846552cecc2ae7c5e0e534bbcd2cc38df70620af46909374f95db973e1b864736f6c63430008050033",
  "immutableReferences": {
    "3": [
      {
        "length": 32,
        "start": 827
      },
      {
        "length": 32,
        "start": 1104
      },
      {
        "length": 32,
        "start": 1248
      },
      {
        "length": 32,
        "start": 1501
      },
      {
        "length": 32,
        "start": 1895
      }
    ],
    "5": [
      {
        "length": 32,
        "start": 863
      },
      {
        "length": 32,
        "start": 2823
      }
    ],
    "13": [
      {
        "length": 32,
        "start": 1453
      },
      {
        "length": 32,
        "start": 2723
      }
    ]
  },
  "source": "/*\n* SPDX-License-Identifier : MIT\n*/\npragma solidity ^0.8.5;\n\ncontract DonationDapp{\n    address public immutable Distributor;           // Distributor of dapp and exclusive content.\n    uint public immutable Donation;                 // The Donation ammout.\n    string public DappCID;                          // CID of the dapp.\n    string public ContentCID;                       // CID of the exclusive content for donators.\n    uint public ContentTime;                        // Time at which ContentCID is expected to be set for Donator interaction.\n    uint public immutable MaxDonators;              // Max number of Donators.\n    uint public DonatorID;                          // Number of Donators. \n    mapping (address => bool) public DonatorsMap;   // Mapping of Donators.\n    address[] public DonatorsArr;                   // Array of Donators.\n\n    modifier onlyDistributor{\n        require(msg.sender == Distributor, \"Invalid Distributor Address.\");\n        _;\n    }\n\n    constructor(uint _donation, uint _maxDonators, uint _contentTime){\n        Distributor = msg.sender;\n        Donation = _donation;\n        MaxDonators = _maxDonators;\n        ContentTime = _contentTime;\n    }\n\n    function _baseURI() internal pure returns(string memory){\n        return \"ipfs://\";\n    }\n\n    function tokenURI(uint _donatorId) public view returns(string memory){\n        require(DonatorID < _donatorId, \"Invalid DonatorID\");\n        return string(abi.encodePacked(_baseURI(), DappCID));\n    }\n\n    function distributeDapp(string memory _dappCID) public onlyDistributor{\n        require(compare(DappCID, \"\"), \"Dapp CID has already been set.\"); // all or nothing condition.\n        DappCID = _dappCID;\n    }\n\n    function setContentCID(string memory _contentCID) public onlyDistributor{\n        require(compare(ContentCID, \"\"), \"ContentCID has already been set.\"); // all or nothing condition.\n        ContentCID = _contentCID;\n    }\n\n     // Compare string _a and _b equality\n    function compare(string memory _a, string memory _b) internal pure returns(bool){\n        return keccak256( abi.encodePacked( bytes(_a) ) )  == keccak256( abi.encodePacked( bytes(_b) ) );\n    }\n\n    function claim() public onlyDistributor{\n        (bool sent, ) = Distributor.call{value: address(this).balance}(\"\");\n        require(sent, \"Failed to send Ether\");\n    }\n\n    function donate() public payable{\n        require(!DonatorsMap[msg.sender], \"You have already donated to this public goods project.\");\n        require(DonatorID < MaxDonators, \"The donation maximum has been reached\");\n        require(msg.value >= Donation, \"You must donate the contract donation value to participate.\");\n        DonatorID++;\n        DonatorsMap[msg.sender] = true;\n        DonatorsArr.push(msg.sender);\n    }\n}",
  "sourcePath": "/home/stephenstb/Ratio-Labs/web3-donation-dapp/contracts/DonationDapp.sol",
  "compiler": {
    "name": "solc",
    "version": "0.8.5+commit.a4f2e591.Emscripten.clang"
  },
  "schemaVersion": "3.3.3",
  "updatedAt": "2022-10-31T09:14:33.836Z",
  "devdoc": {
    "kind": "dev",
    "methods": {},
    "version": 1
  },
  "userdoc": {
    "kind": "user",
    "methods": {},
    "version": 1
  }
}